:020000040000fa
:080000000002040000000000f2
:020000040000fa
:1000080094260000a4260000ca0e0000b4260000b2
:10001800c4260000ca0e0000ca0e0000ca0e000066
:10002800ca0e0000ca0e0000ca0e00009e0300009f
:10003800ca0e0000ca0e0000ca0e0000d20200005c
:10004800f2020000ca0e0000ca0e0000a60300005b
:10005800ca0e0000ca0e0000ca0e0000ca0e000038
:10006800ca0e0000ca0e0000ca0e00008406000076
:10007800ca0e0000ca0e0000ca0e0000ca0e000018
:10008800ca0e0000ca0e0000ca0e0000ca0e000008
:10009800ee020000ca0e0000ca0e0000ca0e0000e0
:1000a800ca0e0000ca0e0000ca0e0000ca0e0000e8
:1000b800ca0e0000ca0e0000ca0e0000ca0e0000d8
:1000c800ca0e0000ca0e0000ca0e0000ca0e0000c8
:1000d800ca0e0000ca0e0000ca0e0000ca0e0000b8
:1000e800ca0e0000ca0e0000ca0e0000ca0e0000a8
:1000f800ca0e0000ca0e0000ca0e0000ca0e000098
:10010800ca0e00005a070000ca0e0000ca0e0000fe
:10011800ca0e0000ca0e0000ca0e0000ca0e000077
:10012800ca0e0000ca0e0000ca0e0000ca0e000067
:10013800ca0e0000ca0e0000ca0e0000ca0e000057
:10014800ca0e0000a6060000ca0e0000ca0e000073
:10015800ca0e0000ca0e0000ca0e0000ca0e000037
:10016800ca0e0000ca0e0000ca0e0000ca0e000027
:10017800ca0e0000ca0e0000ca0e0000ca0e000017
:10018800ca0e0000ca0e0000ca0e0000ca0e000007
:10019800ca0e0000ca0e0000ca0e0000ca0e0000f7
:1001a800ca0e0000ca0e0000ca0e0000ca0e0000e7
:1001b800ca0e0000ca0e0000ca0e0000ca0e0000d7
:1001c800ca0e0000ca0e0000ca0e0000ca0e0000c7
:1001d800ca0e0000ca0e0000ca0e0000ca0e0000b7
:1001e800ca0e0000ca0e0000ca0e0000ca0e0000a7
:1001f800ca0e0000ca0e0000ca0e0000ca0e000097
:10020800ca0e0000ca0e0000ca0e0000ca0e000086
:10021800ca0e0000ca0e0000ca0e0000ca0e000076
:10022800ca0e0000ca0e0000ca0e0000ca0e000066
:10023800ca0e0000ca0e0000ca0e0000ca0e000056
:10024800ca0e0000ca0e0000ca0e0000ca0e000046
:10025800ca0e0000ca0e0000ca0e0000ca0e000036
:10026800ca0e0000ca0e0000ca0e0000ca0e000026
:10027800ca0e0000ca0e0000ca0e0000ca0e000016
:10028800ca0e0000ca0e0000ca0e0000ca0e000006
:10029800ca0e0000ca0e0000ca0e0000ca0e0000f6
:1002a800ca0e0000ca0e0000ca0e0000ca0e0000e6
:1002b800ca0e0000ca0e0000ca0e0000ca0e0000d6
:1002c800ca0e0000ca0e0000ca0e0000ca0e0000c6
:1002d800ca0e0000ca0e0000ca0e0000ca0e0000b6
:1002e800ca0e0000ca0e0000ca0e0000ca0e0000a6
:0402f800ca0e00002a
:020000040000fa
:100400006f5521000eff21000e0188000000000042
:10041000000020000000e000020032000001200087
:10042000200288000c000700605e2200010020000e
:100430000f000700000020000000e0000200320072
:100440000000020000000000d819020000000000b7
:100450000040da000000fe00200020000000e00064
:1004600002003200002020009001880000000600f9
:10047000a1028800800078000000eb001a0037001d
:10048000e280400054a0b4009101ba00e280400034
:1004900054a0b4009102ba00e280400054a0b4001d
:1004a0000002eb00472bde00f507b200a601880032
:1004b000602ce10008003a000049eb000201e8006e
:1004c000020039003420ec0002f0a0008301e900b2
:1004d000f9ff3e00040037006128e100010032000e
:1004e0000082eb00040007001101ba000200e000e6
:1004f000e3ff3a000000060004d0a300e20f490029
:100500001c003900810278003549ba000201e80078
:10051000020039003420ec0002f0a0008301e90061
:100520000f0032002549ba000201e800020039003c
:100530003420ec0002f0a0008301e9000800320042
:100540000400e0000600320015c9ba000201e8000c
:10055000020039003420ec0002f0a0008301e90021
:100560008180e80054a0b4000300e000e2ff3a00fc
:10057000000006009102ba00055978008301e900e5
:10058000f7ff3200c82ade00055978008301e90030
:10059000f3ff32000400e000f1ff320011d9ba008d
:1005a000eeff37003600f800809fbe00829fbe003d
:1005b000849fbe00869fbe000621ef00030b07004c
:1005c00000e8a9004f03be004f02be004f01be006d
:1005d0004f00be003600f900004006000388a90065
:1005e00000400600809fbe000a21ef00d030ec00e2
:1005f000a034ec002e14ec0070a18800813e200095
:10060000810f5000020034002e34ef000e34ec0055
:100610003014e200030032003034ef00fa32ec0014
:10062000020037001000200080a18800c833ec00d1
:10063000de33ec000108a900ac34ec003634ec00e9
:10064000a233ec00301f2000a213e30007003600a5
:10065000b0a28000e10f500004003a00e01f20002b
:10066000109d88005634ef009632ef0020a28000e3
:10067000e10f500006003a00b833ec00c09d800046
:10068000e10f5000020036004434ef00b833ef00b1
:10069000f0a680002015e3000a003e00a833ec001d
:1006a000409d80002415e3000e003e001000200055
:1006b000b09d880030a980004200dd00c083880022
:1006c00008003700f0a680002215e300050039007d
:1006d000a813e20002003400a833ed000100370047
:1006e000a833ef00a433ec00e03f2000a413e300a4
:1006f00003003600a433ef009814f800a613f900a5
:100700009c34ec00209d8000309d8000be33ec00c6
:1007100090a28000e10f500001003a00c433ec00c9
:10072000301f2000c413e300020036005034ef00f5
:100730005234ef004f00be000040060005e1a90062
:100740000021ef000068a900004006003600f80014
:10075000809fbe00829fbe00849fbe00869fbe0019
:100760000021ef0005e1a9000068a9001111800037
:100770002602f800fe12f9000000eb002262ab0036
:1007800003003a00688060000000e9004f00de00ce
:100790002602f8000013f9002262ab0001003200cb
:1007a0000000eb002602f8000213f9002262ab0001
:1007b000010032000000eb002602f8000413f900eb
:1007c000f1978000039880001298800081c041005a
:1007d00082c0400081417800c22f21000349780087
:1007e000c12f2100914078008180fb002298800079
:1007f000810f51003c013a00e10f50003a013a00ec
:10080000f0978000ef0f500003003e00fe12f8004a
:10081000d012f90004003700f09780009194800016
:1008200081007000819688000098800011988000f7
:100830004800dd000100400090968800d012e200e0
:100840000d003a000000e0000b003a000633ef0014
:10085000f10f2000f397800081816100639688008a
:1008600050002000509688001000200070968800ec
:100870009c0507001d013700007d2000c813e30020
:10088000040036009812e200020032009832ef00b5
:100890009632ef00c833ef0080968000e10f5000e1
:1008a0000e003a00d4f0b700d5f0b700a233ef0045
:1008b0001000200050968800909480005005b300ee
:1008c00060968800a05a2000d212e30002003a008d
:1008d00010002000709688008b050700809680002d
:1008e000015a2000810f500010003a0091968000bc
:1008f000419a8800b19488009612e20002003a0002
:10090000b633ef00a833ef0051002000211188001a
:100910001100200021118800010a20002111880007
:10092000e680400021118800650037001158200042
:10093000810f500052003a001108b10092948000db
:10094000810f51004e003a009096800080007800a0
:10095000f13fb20012352000828f500045003e006a
:10096000419988002813f8007a10f90000e8a300e4
:100970000300320010002000b0a8880001003700fa
:100980001635ef00d08380002815e3000200310007
:100990002815f8007a10f900b09d8000e10f500092
:1009a0000b003a00d08380002615e30005003900d3
:1009b0004414e20006003a00b633ef00a833ef001b
:1009c00003003700c08380004200de00d08388002f
:1009d000d08380004200dd00d08388007a10f800c8
:1009e000f813f900d0838000680050008610e300ff
:1009f00005003100d18380003084800000805000e9
:100a00004300de00c0a88800d0838000680040005a
:100a10008610e3000500360031848000d08380001a
:100a2000008050004300de00c0a888001815e200d6
:100a300002003c0010002000c0a88800d083800085
:100a4000eb0f500002003e009832ef000400370028
:100a500010002000c09488007a10f8007810f90087
:100a60007a10f8002c14f9001000200050a0880023
:100a7000010037009832ef00a233ef0098003700f2
:100a8000e1582000810f50000d003a00e108b1004c
:100a900093948000818f510033003a00909680003b
:100aa000109a8800e10f500002003a00a09f8800d1
:100ab00001003700f433ef00a233ef008800370065
:100ac00051582000810f500011003a005108b10028
:100ad00092948000810f510036003a00f03f2000d0
:100ae000d212b60031062000810f500006003e00f1
:100af000009d8800009d80004200dd00e0a7880086
:100b0000fc14f8003013f900a233ef007400370032
:100b100081582000810f500013003a008108b10075
:100b200093948000818f510031003a0090968000ac
:100b3000b0998800b09f8800b09f80000000e0005e
:100b400003003200e10f500005003a0002003700b8
:100b5000e033ef000200370010002000009f880003
:100b6000a233ef005e00370091582000810f500043
:100b700010003a009108b10092948000810f51005a
:100b800029003a0090968000010028008101600051
:100b9000139f8800119f8000cf08de00119f8800fe
:100ba00000f0a100209f8800c0998800a233ef00c8
:100bb0004b003700a1582000810f50000c003a0074
:100bc000a108b10092948000810f510023003a00e7
:100bd00090968000d09988008000eb00609e88008d
:100be000719e8800dc33ef00a233ef003c00370039
:100bf000b1582000810f50000b003a00b108b1003d
:100c000093948000818f510023003a0090968000d9
:100c1000e09988008000eb00809e8800919e88000b
:100c2000a233ef002e003700c1582000810f500082
:100c30000a003a00005020009212e30026003a0019
:100c40009096800010f188008000eb00a09e880044
:100c5000b19e8800a233ef0021003700d158200058
:100c6000810f50000c003a00005020009212e30067
:100c700019003a0090968000009a88008000eb00ee
:100c8000c09e8800d19e880010002000e09e880051
:100c9000a233ef0012003700f1582000810f5000fe
:100ca0000d003a00005020009212e3000a003a00c2
:100cb00090968000209a88000000e00003003a002f
:100cc0001000200080a08800010037001034ef00e1
:100cd000a233ef0002003700100020003098880097
:100ce000a233ef00010037007e0407000168a9006d
:100cf0004f03be004f02be004f01be004f00be00ba
:100d00003600f90000400600801f780012aeab00ec
:100d10000b003200a09f8000e10f500008003a0055
:100d200090a08800232ca80000000000430ca8001d
:100d30004a25ef004e25ef002268a90018aea90051
:100d40000268a9004f007800004006003600f80055
:100d5000809fbe00829fbe00849fbe00869fbe0013
:100d6000046ea900046ea900046ea900046ea90017
:100d7000046ea8000ce8ab00060032003234ec0030
:100d80000ce8a90090a18000e10f5000010036009e
:100d90005634ef00dad0bf00e14f500001003a00b6
:100da00059040700d4d0bf0037003200e14f500093
:100db00036003a00d5d0bf00e14f50001a00320093
:100dc000e24f50002d0032000004e0002f003a00f6
:100dd000a233ef001000200050968800909480000d
:100de0005005b30060968800a05a2000d212e3009c
:100df00002003a00100020007096880042040700ac
:100e0000d6d0bf00e14f50000200320010c0b30046
:100e1000d6f0b700d6d0bf00e14f50001b003a001b
:100e2000d5f0b70019003700d830ec00c08680003c
:100e300091352000810f500008003200d11ab00017
:100e4000810f500007003200c11a2000810f5000ae
:100e500006003a00d570ef0004003700d570ef00af
:100e60000200370020c0b300d5f0b700d650e20032
:100e700006003200d670ef0004003700d470ef0097
:100e8000d830ef0001003700d830ef002222ab004d
:100e9000010032002222a9000928a9004f03be0048
:100ea0004f02be004f01be004f00be003600f900e9
:100eb000004006003600f800809fbe00829fbe0002
:100ec000849fbe00861f7800889fbe00046ea90024
:100ed000046ea900046ea900046ea900046ea800a7
:100ee000380cf800f011f900b0a280000000e0001a
:100ef00099013200e10f5000f3013a0090a0800008
:100f0000e10f500003003a009032ec00f830ef009f
:100f1000fa30ef0080948000e20f500007003600a6
:100f2000232ca90000000000430ca9001234ef009c
:100f30009032ef002268a80018aea800109b800035
:100f4000e10f500051003a00fe34ef00a093800002
:100f5000e10f50001e00320005003900e20f500082
:100f600027003200e30f500048003a0039003700f4
:100f7000a09380007212e30006003200fe34ef00fe
:100f800000772100b0a688000e34ef007412f8003c
:100f90007212f900f0a68000f00f50000500360034
:100fa000308120000c04e30002003e00100020000d
:100fb000a0938800800720000e14e3003300360061
:100fc0000e34ef0020002000a09388002f0037008f
:100fd000a09380007212e300040032000077210029
:100fe000b0a688007412f8007212f900f0a6800012
:100ff000ef0f500025003e007432ef002300370051
:10100000a09380007212e300020032007412f80014
:101010007212f90080868000e40f50001b00360039
:10102000d030ef00d0ff2f000a35b4000a15f800c9
:10103000d614f900703e2000d614e30013003e00e1
:101040000000e800b0a6880030002000a0938800cf
:101050000e003700a09380007212e30002003200fd
:101060007412f8007212f900803e2000b0a68800c9
:10107000f0a68000f00f500003003e00a0332000d7
:101080000c04e30001003e007432ef007020800089
:101090000410e300040031007120800020808000f3
:1010a00000805000f0a688001612e20011003a00fd
:1010b000808f8000339080004290800051908000ab
:1010c0000080410002004000010040004400de00ba
:1010d0008000eb0060908800719088000812f80092
:1010e0000a12f9000612f8000812f900f011f800cf
:1010f0000612f900a2a88000f0a68000710b200063
:101100000102b8001100090042aad80060a68800b8
:10111000c0a82000cc14e3000100360060a68800bf
:10112000e013e20030003a001615e20018003a0021
:10113000308480001815b4007810e30004003600f5
:10114000308480001815b400308488001200370005
:1011500031848000c0a88000008050007810e30037
:1011600008003100c0a880008610e30005003600aa
:1011700031848000c0a88000008050003084880046
:10118000050037007810f8008610f90002003700db
:101190007810f8008610f900f413e20012003a000b
:1011a00031848000d092800000805000c09288007e
:1011b000f09280005812b400f0928800f092800003
:1011c0005e12e20001003d005e32ef00f09280000e
:1011d0004480de00e09288005c12f8005a12f900a8
:1011e0005c12f8008610f900308480006102b800bb
:1011f000820120001100090042aad8006a004000c4
:1012000040878800f0a68000f0312000fe14e30043
:1012100006003600009f8000e10f500003003200fe
:10122000a09f8000e10f5000bf003a00d614f800e4
:101230004e0cf9004e0cf800260cf900009f8000bf
:10124000e10f50001a003200fe34ec001632ef00bd
:10125000f0a68000f0a68000e20f500008003e00db
:101260007612e20006003a00f413e20004003a00ad
:10127000fe34ef00f830ef00fa30ef00ad00370039
:1012800010002000b0938800d210e200a9003a00bc
:1012900040062000d634b400307d2100d614e3008f
:1012a000a40036000000e800b0a68800a1003700c6
:1012b0001632ef0010002000609388006832ef00c3
:1012c0006632ef006432ef006a32ef007010e20025
:1012d0000e003a0012a3800023a38000f28488004d
:1012e0000385880034a3800045a38000148588000e
:1012f0002585880030a3800041a38000d09088001d
:10130000e1908800100020008083880030a38000d6
:1013100041a38000f2342c00820f5000e08f58006f
:101320001c003600d2908000e390800030a3800043
:1013300041a38000800f5100818f590015003200b9
:1013400014a3800025a38000f4848800058588000c
:1013500030a3800041a3800010858800218588008b
:1013600032a3800043a38000d2908800e3908800dd
:101370001000200001002000408488005184880073
:1013800060848800718488002092880031928800ef
:101390001700370030a3800041a38000f3342c00f5
:1013a000830f5000e08f580011003e002092800013
:1013b00031928000e10f5000e08f58000c003a009d
:1013c00014a3800025a38000f4848800058588008c
:1013d00030a3800041a3800010858800218588000b
:1013e0001a32ef001c32ef004432ef004632ef00b9
:1013f0004284800053848000f08480000185800056
:10140000800f5100818f590026003e00329f8000de
:10141000439f8000d092800000005100c09288005d
:10142000f09280005812b400f0928800f092800090
:101430005e12e20001003d005e32ef00f09280009b
:101440004480de00e09288005c12f8005a12f90035
:101450005a12f8008610f9004284800053848000fc
:10146000f084800001858000800f5100818f590039
:1014700005003a0011002000618488008e30ef00e2
:101480001000200070838800428480005384800014
:1014900061014100e0814900428488005384880052
:1014a00024003700509f8000619f800030848800b6
:1014b0006284800073848000108580002185800014
:1014c000800f5100818f5900100039002092800058
:1014d00031928000e00f5000e08f580008003a0081
:1014e00014a3800025a38000f4848800058588006b
:1014f00030a3800041a380001085880021858800ea
:1015000011002000418488008a30ef00628480004e
:101510007384800061014100e08149006284880099
:101520007384880003003700100020009086880034
:10153000b09088000ce8ab00630032003234ec005d
:1015400090a18000e10f5000010036005634ef00fa
:101550000ce8a9005c00370000fa2000b0a6880063
:1015600080a08000e10f500002003a00803e200081
:10157000b0a68800d030ef00ce30ef007432ef001c
:1015800010002000909388007032ef006c32ef0062
:101590006232ef006032ef005c32ef005a32ef004f
:1015a0005832ef005e32ef006832ef006632ef0033
:1015b0006432ef006a32ef005432ef005632ef002f
:1015c000ca30ef00cc30ef004c32ef004e32ef006b
:1015d0005032ef005232ef001a32ef001c32ef00af
:1015e0003a32ef003232ef002e32ef003032ef00ad
:1015f0002c32ef00262cef004e2cef00f431ef00e0
:10160000ec31ef00ec11f8004a05f9004e25ef002f
:101610000232ef00fe34ef00b830ef00ba30ef00d6
:10162000c030ef0001322000b18388000177210033
:10163000018c8800f830ef00fa30ef00e830ef005e
:10164000da31ef00120020000300200042848800fd
:10165000538488006284880073848800de34ef003d
:101660008630ef001632ef009430ef00fa33ef00cf
:10167000e033ef002232ef00a630ef0050918800f7
:1016800040918800c233ef00ba33ef000634ef0018
:101690000834ef006e30ef007030ef007632ef006c
:1016a000d230ef00712080008100e900600220004c
:1016b000808f500004003e00208080000e04b400a3
:1016c0000000d10020808800d09f8000e10f5000f2
:1016d00003003200e20f500005003a00020037001c
:1016e0009430ec00030037009430ef000100370025
:1016f0009430ef00ca33ec002a35ec0030848000cf
:1017000031848000f2a680004500de000200500017
:101710000100400070878800a09f8000e10f50000a
:101720000e003a00e013e2000c003a00439c200057
:10173000039488008232ef0030002000f09388008c
:1017400084502d0024948800f4ff2f0034948800e6
:1017500040002000e09388000a00370005fa2000ce
:10176000059488008232ef0040002000f09388004a
:1017700006a82d0026948800f6ff2f0036948800d6
:10178000e0938800f0a68000f0312000fe14e30012
:1017900006003600009f8000e10f50000300320079
:1017a000a09f8000e10f500086003a00b0908000ba
:1017b000e10f500005003a001632ef00009480005f
:1017c00011948000c0878800d187880072878000cc
:1017d000c0878000d1878000cf91de0000004100eb
:1017e00081804900c0878800d1878800c287800037
:1017f000d38780002094800031948000800f5100b6
:10180000818f590005003d002494800035948000ac
:10181000c4878800d58788000b003700c287800006
:10182000d38780000094800011948000800f5100c5
:10183000818f5900040034000094800011948000ce
:10184000c0878800d1878800c0878000d18780004a
:10185000e00f5000e08f580019003d00c087800065
:10186000d187800060001000e08018009087880019
:10187000a187880092878000a3878000e193800081
:101880000202be00010378000603e90003003300f2
:101890008582d1000482d300fbff37009487880043
:1018a000a587880090878000a187800060001000d5
:1018b000e080180090878800a18788000c0037001e
:1018c000c2878000d3878000f19380000202be00af
:1018d000010378000603e900030033008582d1008c
:1018e0000482d300fbff370094878800a587880017
:1018f0003384800090878000a18780004287800029
:101900007b004000e080480000804100e08048000b
:1019100000004100e08048000088880011888800ad
:10192000008880001188800042ce2000820f500085
:10193000e08f58000400340043ce200093838800d9
:101940007430ef000d00370000888000118880009f
:10195000fa0f5000e08f580004003c00b401200052
:10196000948388007430ef00040037000088800002
:101970001188800090838800a1838800b0a2800035
:10198000e10f5000f5003a0090838000a1838000b1
:10199000502a880090838000a18380009a13b400ad
:1019a000702a880090a08000e10f500002003a00e9
:1019b0004a25ef004e25ef0010002000109088000f
:1019c000e60037003084800031848000e8805000d9
:1019d0004500de0080804000de14ee008080400084
:1019e000718788003084800031848000e880500056
:1019f0004500de0080804000de14ee008080400064
:101a00008187880030618000716280000000e00002
:101a100005003a000100e00003003a00f830ef0052
:101a2000fa30ef005600370010908000e10f5000b0
:101a300005003a000232ef001014e20002003a0002
:101a4000f830ef00fa30ef00ee10e2001e003d002b
:101a500070878000ff0f400007003d00c2878000b4
:101a6000d38780000202b1000380b100c2878800e2
:101a7000d38788003100370070878000e10f400075
:101a800007003500c4878000d587800061025200be
:101a9000e0825a00c4878800d58788002700370075
:101aa00070878000c2878000d38780000080d100cb
:101ab000cf82de000200400083804a00c087880099
:101ac000d18788001d00370070878000ff0f50000d
:101ad00007003400c0878000d18780000002b0007a
:101ae0000180b000c0878800d187880013003700cc
:101af00070878000e10f500007003c00c287800023
:101b0000d387800061014100e0814900c2878800dd
:101b1000d38788000900370070878000c287800063
:101b2000d38780000080d1004f82de000200400099
:101b300083004a00c0878800d1878800f010e20047
:101b400008003d0080878000ff0f400003003d003b
:101b500080002000a0908800090037001432ef00b8
:101b60000700370080878000ff0f5000030034001b
:101b700080002000a0908800010037001432ef00a0
:101b8000c2878000d387800080092400f1ff2f00e6
:101b9000800f5100818f590005003d008509240008
:101ba000c5878800f5ff2f00d5878800090037001a
:101bb000c0878000d187800086f62b00860f5000fa
:101bc000e08f58000300340080f62b00c0878800a7
:101bd000fa30ef0030848000240020000482b90035
:101be000a1908000808780000184b900c2878000b6
:101bf000d387800006012000110009004619d80093
:101c0000000178000800420089804a00cf91de0080
:101c10000000410081804900008888001188880008
:101c2000f010e2000f003d0080878000ff0f4000b1
:101c300007003d0004888000158880000402b00081
:101c40000580b000048888001588880013003700dc
:101c50000088800011888000008888001188880032
:101c60000e00370080878000ff0f5000070034000f
:101c700002888000138880000202b1000380b10056
:101c800002888800138888000400370004888000d8
:101c900015888000048888001588880000888000e6
:101ca00011888000c5702100850f5000e08f58001a
:101cb00004003400c6702100869088001232ef00c4
:101cc0000d0037000088800011888000fa0f500056
:101cd000e08f580004003c00b00120008090880094
:101ce0001232ef0004003700028880001388800061
:101cf0008290880093908800b0a28000e10f50008d
:101d000016003a000212e20009003a0060908000da
:101d10007190800030618800609080007190800038
:101d20007062880030002000109088000b0037009f
:101d300040ce2000502a8800702a880080908000c1
:101d400091908000306188008090800091908000a8
:101d5000706288003000200010908800109580008c
:101d6000e10f500001003a006630ec001000200046
:101d7000508388000728a9004f04be004f03780055
:101d80004f02be004f01be004f00be003600f900fa
:0c1d9000004006000040da000000fe00e9
:020000040000fa
:101d9c007433ef0050052000b09b88007833ef00bf
:101dac007a33ef007c33ef007e33ef009433ef0097
:101dbc0032002000b29c8800e0152000c09c8800f6
:101dcc00a0002000509a8800609a880031a324005b
:101ddc00719a8800f1002000819a88005233ef003c
:101dec005433ef0081342000b19a88001100200098
:101dfc00c19a88005a33ef0053002000e39a880000
:101e0c0083162000f39a8800019b88000c33ef00a6
:101e1c000a33ef0070988800809888001233ef0026
:101e2c0001192000a19888001633ef00210320002f
:101e3c00c198880001232000d198880081112000ce
:101e4c00e1988800b1042000f1988800010f20006f
:101e5c0001998800c13020001199880021998800cf
:101e6c00813e20003199880041062000419988006c
:101e7c00509988006199880072998800829988002d
:101e8c006004200090998800a19988004833ef00e5
:101e9c004a33ef00c0082000e0a78800602d210025
:101eac0042022000000141008000eb000108780094
:101ebc001100980064004000820f5000fbff3a00b4
:101ecc00a0002000509688004000200060968800fa
:101edc00ce32ef00000006002202ab0004003200fc
:101eec002222a900301180002202ab00fcff3a0034
:101efc000168a9002168a800000006002168a9005b
:101f0c00dad0bf00e14f500005003200609680002f
:101f1c00519680008180fb00719b88000300370084
:101f2c00309b80006813f8006e13f9002168a8003c
:101f3c008080fb00619b8800c800de00819b8800cc
:101f4c00619b8000739b8000829b8000818041009c
:101f5c0082804000919b88002302ab000a00320073
:101f6c006e13f8002402f9007013f8002402f90033
:101f7c006c13f8002402f9007213f8002402f90023
:101f8c00da70ef0005003700309b88006e13f80004
:101f9c006813f90010c0b300daf0b70000000600b7
:101fac00a09480008000eb00eb0f5000e08f5800f5
:101fbc00aa003e00000601000b003700130037009a
:101fcc001b0037002800370035003700420037006f
:101fdc004f0037005c003700690037007500370090
:101fec00820037008f0037000011200050968800c7
:101ffc00a0002000609688001000200070968800d9
:10200c0020002000a09488009400370010112000bc
:10201c0050968800a00020006096880010002000d8
:10202c0070968800f00f2000a09488008b00370079
:10203c0020112000509688004e13f800cc12f900a5
:10204c00100020007096880030002000a0948800ba
:10205c00a0948000eb0f5000800036001000200090
:10206c00a09488007d003700301120005096880025
:10207c005013f800cc12f900100020007096880064
:10208c0040002000a0948800a0948000eb0f50002a
:10209c007200360010002000a09488006f003700fa
:1020ac0040112000509688005213f800cc12f90011
:1020bc00100020007096880050002000a09488002a
:1020cc00a0948000eb0f500064003600100020003c
:1020dc00a0948800610037005011200050968800b1
:1020ec005413f800cc12f9001000200070968800f0
:1020fc0060002000a0948800a0948000eb0f50009a
:10210c005600360010002000a094880053003700c1
:10211c0060112000509688005000200060968800c6
:10212c00100020007096880070002000a094880099
:10213c00a0948000eb0f50004800360010002000e7
:10214c00a09488004500370070112000509688003c
:10215c0050002000609688001000200070968800c7
:10216c0080002000a0948800a0948000eb0f500009
:10217c003a00360010002000a09488003700370089
:10218c008011200050968800cc32ef001000200007
:10219c007096880090002000a0948800a094800085
:1021ac00eb0f50002d00360010002000a09488008a
:1021bc002a00370090112000509688005c13f8001c
:1021cc00cc12f9001000200070968800a0002000ae
:1021dc00a0948800a0948000eb0f50001f003600e4
:1021ec0010002000a09488001c003700a0112000d3
:1021fc00509688005e13f800cc12f90010002000f5
:10220c0070968800b0002000a0948800a0948000f4
:10221c00eb0f50001100360010002000a094880035
:10222c000e0037006013f800cc12f900b01120003a
:10223c00509688001000200070968800f03fb00087
:10224c009212e30003003a00f00f2000a0948800e3
:10225c000200370010002000a09488000000060047
:10226c00a09480008000eb00f60f5000e08f580027
:10227c0071003e00000601002f00370033003700cc
:10228c0023003700270037001200370034003700d6
:10229c00380037003c00370040003700440037005e
:1022ac0048003700510037005a0037005e003700f5
:1022bc0012003700600037005f0037005e00370007
:1022cc005d0037005c0037005b0037005a003700b8
:1022dc00050037001213f800cc12f900005420004e
:1022ec0050968800540037003613f800cc12f900d1
:1022fc0080582000509688004f0037002613f800b5
:10230c00cc12f90000582000509688004a00370083
:10231c000e13f800cc12f9000052200050968800e1
:10232c00450037001013f800cc12f90010522000b1
:10233c0050968800400037000a13f800cc12f900c0
:10234c0000512000509688003b0037000c13f80019
:10235c00cc12f9001051200050968800360037003e
:10236c001413f800cc12f900005620005096880087
:10237c00310037001613f800cc12f900105620006b
:10238c00509688002c0037001813f800cc12f90076
:10239c002056200050968800270037001a13f800aa
:1023ac00cc12f900305620005096880022003700dd
:1023bc001c13f800cc12f9005056200050968800df
:1023cc001d003700f0988000b11620000102b80003
:1023dc00823e20001100090042aad80060968800b5
:1023ec00f0562000509688001300370000998000aa
:1023fc00b11620000102b800823e20001100090035
:10240c0042aad80060968800105720005096880089
:10241c00090037002213f800cc12f9009056200066
:10242c0050968800040037002413f800cc12f900f1
:10243c00b05620005096880000000600881f7800d7
:10244c0070968000e40f50004e00320006003e00f3
:10245c00e10f50002000320009003900e20f50005b
:10246c0084003a0040003700e60f50004e00320066
:10247c004a003900e70f50007e003a004d0037004b
:10248c009094800001102000810f50000400320055
:10249c0001502000810f500076003a0005003700f3
:1024ac00a0948000eb0f500072003e00bcfe0700b1
:1024bc00700037006aff07009612e200030032003a
:1024cc0050002000709688006a00370070002000d1
:1024dc007096880067003700ce32ef0000102000a5
:1024ec009212e30005003a000080e9009412e30028
:1024fc0002003a0020002000a09488009a12e2000a
:10250c0008003a00a05a2000d212e30005003a005d
:10251c00500020007096880010002000d094880095
:10252c009432ef0050968000e10f5000040032000e
:10253c0080968000e10f50004e0032006ffe0700c5
:10254c00f00f2000d012b600f20f500049003a00f4
:10255c00009020009212e30046003a001000200088
:10256c0000958800430037004000200050968800fa
:10257c009c12f800cc12f900ce32ef005ffe07007f
:10258c003c00370000022000a0948800500020007e
:10259c007096880059fe0700360037006000200056
:1025ac007096880033003700700020007096880009
:1025bc00300037009e12e20009003200f0948000d7
:1025cc00e40f500005003a0000542000509688009b
:1025dc001213f800cc12f90048fe07009e32ef00ef
:1025ec009432ec00a0948000e40f500002003e00f6
:1025fc0050002000a0948800a0948000ed0f5000a3
:10260c000200360050002000a0948800a89480009e
:10261c00650454004240dd00612d21000080400023
:10262c001000e0000f003200c240dd00802d2100c0
:10263c000080400010007800fa12e30009003a0014
:10264c0007ff0700d19780004244dd00802d210058
:10265c0008004000622d2100080441001888400049
:10266c0026fe07009612e200020032005000200005
:10267c00709688004f047800000006009096800049
:10268c00e10f5000020036000002d10001003700bb
:10269c000002780002af2f00f3ff2f00819680001c
:1026ac0002814000e081490011092000810f510096
:1026bc00e08f59003b013e000206010091003700fb
:1026cc0097003700370137003601370035013700e6
:1026dc003401370033013700320137003101370044
:1026ec00300137002f0137002e0137002d01370044
:1026fc002c0137002b0137002a0137008f003700df
:10270c0095003700270137002601370025013700d7
:10271c002401370023013700220137002101370043
:10272c00200137001f0137001e0137001d01370043
:10273c001c0137001b0137001a0137001901370043
:10274c001801370017013700160137001501370043
:10275c001401370013013700120137001101370043
:10276c00100137000f0137000e0137000d01370043
:10277c000c0137000b0137000a0137000901370043
:10278c000801370007013700060137000501370043
:10279c000401370003013700020137000101370043
:1027ac0000013700ff003700fe003700fd00370046
:1027bc00fc003700fb003700fa003700f900370047
:1027cc00f8003700f7003700f6003700f500370047
:1027dc00f4003700f3003700f2003700f100370047
:1027ec00f0003700ef003700ee003700ed00370047
:1027fc00ec003700eb003700ea0037005d003700d3
:10280c0067003700710037007b003700e5003700a8
:10281c0084003700e3003700e2003700e1003700a6
:10282c0096003700df0037009f003700dd003700cf
:10283c00dc003700db00370085003700d90037009b
:10284c00d8003700d7003700d6003700d500370046
:10285c00d4003700d3003700d2003700d100370046
:10286c00d0003700cf003700ce003700cd00370046
:10287c00cc003700cb003700ca003700950037007a
:10288c009a0037009b0037009c0037009d003700f2
:10289c009e0037009f003700a0003700a1003700d2
:1028ac00a2003700a3003700a4003700a5003700b2
:1028bc00a6003700a7003700a8003700a900370092
:1028cc00b8003700b7003700b6003700b500370046
:1028dc00b4003700b3003700b2003700b100370046
:1028ec00b0003700af003700ae003700ad00370046
:1028fc00ac003700ab003700aa003700a900370046
:10290c00a10037000a13f800cc12f9000051200086
:10291c00509688001000200070968800a1003700a7
:10292c000c13f800cc12f9001051200050968800be
:10293c0010002000709688009a0037000e13f800e3
:10294c00cc12f90000522000509688001000200094
:10295c0070968800930037001013f800cc12f90021
:10296c0010522000509688001000200070968800ad
:10297c008c003700b4968800d0978000000242008b
:10298c00c49688001413f800cc12f90000562000ed
:10299c005096880010002000709688008100370047
:1029ac00d4968800d097800000024200e4968800fc
:1029bc001613f800cc12f90010562000509688001f
:1029cc00100020007096880076003700f49688007e
:1029dc00d097800000024200049788001813f8007a
:1029ec00cc12f900205620005096880010002000d0
:1029fc00709688006b00370014978800d097800081
:102a0c0000024200249788001a13f800cc12f90037
:102a1c0030562000509688001000200070968800d8
:102a2c006000370034978800d09780000002420085
:102a3c00449788001c13f800cc12f9005056200063
:102a4c0050968800100020007096880055003700c2
:102a5c0054978800d0978000000242006497880049
:102a6c001e13f800cc12f900f05620005096880086
:102a7c0010002000709688004a0037009497880058
:102a8c00d097800000024200a49788002213f8001f
:102a9c00cc12f900905620005096880010002000af
:102aac00709688003f003700b4978800d09780005c
:102abc0000024200c49788002413f800cc12f900dd
:102acc00b0562000509688001000200070968800a8
:102adc0034003700813e2000810f50003100360059
:102aec0001007800309988002e003700409988004a
:102afc002c003700509988002a0037006099880014
:102b0c0028003700709988002600370080998800cb
:102b1c00240037009099880022003700a099880083
:102b2c0020003700b09988001e003700c09988003b
:102b3c001c003700d09988001a003700e0998800f3
:102b4c0018003700f099880016003700009a8800aa
:102b5c0014003700109a880012003700209a880061
:102b6c0010003700309a8800309a8000e30f500034
:102b7c0003003a0010002000109b88000900370069
:102b8c006233ef0007003700509a8800101a2000bb
:102b9c00609688005000200050968800100020009d
:102bac00709688000000060030988000e10f5000fd
:102bbc0051013a000633ef0080968000ef0f500071
:102bcc00c3003e00e30f5000b800320005003e0089
:102bdc000000e00008003200e20f500046013a000d
:102bec00ab003700e40f5000b3003200e50f50008b
:102bfc0041013a00b300370091968000a19b8800f8
:102c0c009094800002402000820f50004e00320051
:102c1c0006003e000000e0000e0032000210200012
:102c2c00820f500034013a00280037000290200037
:102c3c00820f50007700320002402100820f5000ba
:102c4c008e00320002502000820f50002a013a0000
:102c5c0057003700e18f500004003200e98f50001c
:102c6c0002003200e48f500013003a00c808dd0067
:102c7c0091948800ca32ef00909480004800de00e6
:102c8c000010b0006096880010002000709688003c
:102c9c00f00f2000a0948800009020009212e30016
:102cac0003003200004021009212e30012013a00ae
:102cbc009632ef0010013700ca32ef00619688009f
:102ccc0010002000709688000b013700e58f500033
:102cdc0004003200e98f500002003200e48f5000f3
:102cec0014003a00c808dd0091948800ca32ef0045
:102cfc00909480004800de000010b00060968800c0
:102d0c001000200070968800f00f2000a09488001e
:102d1c00a233ef00009020009212e3000300320077
:102d2c00004021009212e300f3003a009632ef00cb
:102d3c00f1003700ca32ef006196880010002000c5
:102d4c0070968800ec003700e98f500013003a00b1
:102d5c000090200090948800ca32ef00919480007b
:102d6c00c808de000110b000619688001100200038
:102d7c0071968800f10f2000a1948800a233ef0017
:102d8c009212e30003003200004021009212e30093
:102d9c00d9003a009632ef00d7003700ca32ef0064
:102dac00619688001000200070968800d2003700d1
:102dbc00e98f500012003a00009020009094880097
:102dcc00ca32ef0091948000c808de000110b000f8
:102ddc00619688001100200071968800f10f200088
:102dec00a19488009212e3000300320000402100fd
:102dfc009212e300c0003a009632ef00be0037009a
:102e0c00ca32ef006196880010002000709688008e
:102e1c00b9003700f48f500013003a000040210035
:102e2c0090948800ca32ef00909480004800de0035
:102e3c000010b0006096880010002000709688008a
:102e4c00f00f2000a0948800009020009212e30064
:102e5c0003003200004021009212e300a6003a0069
:102e6c009632ef00a4003700ca32ef00619688005a
:102e7c0010002000709688009f003700ca32ef00c7
:102e8c006196880010002000709688009a00370028
:102e9c00d212f8007613f90020002000509688001a
:102eac00ae14f800cc12f90093003700d212f800df
:102ebc007813f90090003700d212f8007c13f90057
:102ecc008d003700d212f8007e13f9008a0037000b
:102edc009194800002502000828f500068003200d4
:102eec0009003e0002102000828f50003100320099
:102efc000230b000828f5000680032000100e00008
:102f0c000b0032007700370002902000828f5000b7
:102f1c003800320000402100808f500076003200d3
:102f2c0000602000808f50006e003a007200370065
:102f3c00a632ef000080fb00f10f50000c003200b5
:102f4c00f20f500012003200f00f500013003a0044
:102f5c00d212f8009413f90050968800100020004b
:102f6c0060968800709688009a32ef0062003700f5
:102f7c00d212f8009613f900100120005096880028
:102f8c001000200060968800709688005a00370068
:102f9c00d212f8009813f900570037006000200097
:102fac0050968800cc32ef001000200070968800fc
:102fbc0051003700a632ef0001112000810f5000a4
:102fcc00040032008100e800810f500003003a0039
:102fdc00490037009432ef004700370060002000b2
:102fec0050968800cc32ef001000200070968800bc
:102ffc00410037000080fb00f10f500009003a003f
:10300c0050968800d212f8004c15f90060aa800086
:10301c000080a00060968800100020007096880048
:10302c0035003700f20f50000b003a0091968000eb
:10303c0061aa880010002000109588002201200051
:10304c005296880061aa88004c15f800cc12f90041
:10305c007096880028003700f30f500026003a00c5
:10306c0050968800d212f8004c15f9004c15f80057
:10307c00cc12f90010002000709688001e0037005a
:10308c00a612e20003003a00a233ef001000200069
:10309c003095880079fd070017003700f0005000cc
:1030ac008180fb002195880021958000eb8f5000da
:1030bc0002003600b100200021958800509688004f
:1030cc002095800000004000a134210000804000c9
:1030dc001000780060968800100020007096880020
:1030ec00050037006000200050968800cc32ef00bd
:1030fc001000200070968800000006009612e20076
:10310c00060032009812e200040032004855e2003a
:10311c0002003a003414e20008003a009612e20071
:10312c00020032004855e20001003200a634ef00e4
:10313c005634ef005434ef00be33ef005614e20067
:10314c0016003a009612e200140032009812e200c7
:10315c00120032004855e20010003a003214e2002e
:10316c000e003a001233ab000a003200a0a180001e
:10317c00e10f500004003a005614e20002003a003d
:10318c00b0a28800be33ef001000200030a58800ec
:10319c0003003700be33ef0001003700be33ef00f1
:1031ac009612e20002003a003234ef00be33ef0018
:1031bc0000000600d1ff07003005070000000600e4
:1031cc009612e20001003a0077fe0700509e800044
:1031dc00e30f500002003600ca33ef0097fc0700e3
:1031ec00000006006213e2001d003a00a2a6800057
:1031fc0021608000309980000102b80011000900a4
:10320c0042aad8000001780061a68000d210e2002a
:10321c0009003a00f413e20007003a0000fa20001b
:10322c00b0a6880080a08000e10f500002003a0098
:10323c00803e2000b0a68800a09f8000e10f5000c7
:10324c0007003a000201d100810041000077210003
:10325c00808f50000100360080007800b1a68800f5
:10326c00000006006102b8006011b800067721006a
:10327c0007002000e00f5200e08f5a0009003a00ce
:10328c000a00370061005000e0805800fdff3a0052
:10329c0062014100e0814900840f5100858f590083
:1032ac00020031000600be00f6ff370000000600e9
:1032bc0011a78000a0a680000100b800f0a988002a
:1032cc0040a780008410e3000500310041a7800076
:1032dc00208480000080500050a488000200370039
:1032ec001000200050a48800f0a9800052a4800097
:1032fc00110009000280d8004300de0000a78800fe
:10330c00e014f8000e13f900f0a9800032a7800039
:10331c00110009000280d80010aa880041a7800083
:10332c0052a7800040a78000ea14b400810041003d
:10333c008181b900c510de0001aa880010aa8000a6
:10334c0002aa80004700dd00110009000280d800ad
:10335c0020aa880024aa800045a7800023aa800008
:10336c0050a7800042a7800056a7800084aab9000d
:10337c008380b900110009000280d8008680b90052
:10338c000000520030aa880030aa80004200de0003
:10339c0030aa88004615f8001013f9000830ef0029
:1033ac0000000600889fbe008a9fbe008c9fbe0056
:1033bc00a1062000802c23000102b8004206200048
:1033cc001100090042aad8004800de0020a788009e
:1033dc004203070048020700350307000a030700f1
:1033ec006d0307006afa070072050700ac020700bc
:1033fc002068a8002108a80020e8a8002268a800de
:10340c0018aea800b4fa07006aff0700046ea90002
:10341c00aeb4a90060ea2000302a88001000200019
:10342c00c0a2880051002000719688008dff070013
:10343c00da70ef00162eef0080002000307088004c
:10344c005814e20003003a005dff07005814e20034
:10345c00fdff3200090028008c3821000d002000ef
:10346c00087122000a7d20001b7d200011e1a800bc
:10347c002282ab0004003a00220880000280640023
:10348c0001003a0005e1a800e09e8000e10f500029
:10349c001d003a00809e8000919e8000629e8000fc
:1034ac00739e8000c000dd00000020000200700050
:1034bc0083807000d0a28800e1a28800c09e8000aa
:1034cc00d19e8000a29e8000b39e8000c000dd00d3
:1034dc00000020000200700083807000f0a28800c1
:1034ec0001a38800d0a28000e1a28000f4a2800099
:1034fc0005a38000040240008582480004848800f3
:10350c0015848800dc33ef00f2a2800003a3800056
:10351c0090a38000a1a38000800f5100818f5900df
:10352c00b800320000848000118480009003b10048
:10353c000180b100150c2000850f5000e08f580061
:10354c0082003e00008480001184800092032000e1
:10355c00820f5000e08f580007003a002000200036
:10356c000100200010a3880021a3880030a388004c
:10357c0041a388009b0037000084800011848000e8
:10358c0073042000830f5000e08f580007003a00ae
:10359c002400200014a388006434ef0035002000c0
:1035ac0035a388006834ef008e003700008480005b
:1035bc001184800032052000820f5000e08f5800eb
:1035cc0007003a00300020000100200010a3880002
:1035dc0021a3880030a3880041a388008100370014
:1035ec00008480001184800043062000830f50006b
:1035fc00e08f580007003a003400200014a3880024
:10360c006434ef004500200035a388006834ef00d7
:10361c00740037000084800011848000f2062000c2
:10362c00820f5000e08f580007003a004000200045
:10363c000100200010a3880021a3880030a388007b
:10364c0041a388006700370000848000118480004b
:10365c00d3072000830f5000e08f580007003a007a
:10366c004400200014a388006434ef0055002000af
:10367c0035a388006834ef005a00370000848000be
:10368c0011848000e2082000820f5000e08f580067
:10369c0007003a00500020000100200010a3880011
:1036ac0021a3880030a3880041a388004d00370077
:1036bc000084800011848000630a2000830f500076
:1036cc00e08f580007003a006400200014a3880023
:1036dc006434ef005500200035a388006834ef00f7
:1036ec00400037000084800011848000820c200090
:1036fc00820f5000e08f580007003a007000200045
:10370c000100200010a3880021a3880030a38800aa
:10371c0041a38800330037000084800011848000ae
:10372c00a30f2000830f5000e08f58002d003a00ab
:10373c009400200014a388006434ef00850020005e
:10374c0035a388006834ef00260037000084800021
:10375c0011848000a20f2000820f5000e08f5800cf
:10376c0020003600d0a28000e1a28000d2a280000e
:10377c00e3a280004c1add004411de00020172004d
:10378c00c419de00c90add004700de0000807200ab
:10379c00c708de00020240008382480014a38800a0
:1037ac0025a38800f0a2800001a38000f2a2800073
:1037bc0003a38000cc1add004411de0002817200ec
:1037cc00c419de00490add004700de00000072006b
:1037dc00c708de00020240008382480034a3880040
:1037ec0045a38800d0a28000e1a2800070a38800cd
:1037fc0081a38800f2a2800003a3800092a388001a
:10380c00a3a38800109f80000000e0002d00320070
:10381c00e10f500055003a00d0858000f813e3000a
:10382c0003003a00209f8000c010e3004f003200dc
:10383c00c09f80008000eb003086880041868800a5
:10384c00229f800030868000418680000200b800f4
:10385c0010868800218688001486800025868000ca
:10386c000402460085824e00148688002586880056
:10387c001286800023868000110009004899d80028
:10388c008000eb001086880021868800128680005c
:10389c0023868000329f8800439f880034868000f6
:1038ac0045868000549f8800659f8800f813f800b7
:1038bc00ba10f900b830ef00e413f800c010f900aa
:1038cc002a003700c0858000f813e30003003a009b
:1038dc00209f8000c010e30024003200c09f8000b5
:1038ec008000eb001086880021868800229f8000d3
:1038fc0010868000218680000200b8003086880087
:10390c004186880030868000418680000000460099
:10391c0081804e0030868800418688003286800087
:10392c0043868000110009004899d8008000eb0004
:10393c0030868800418688001286800023868000ad
:10394c00329f8800439f8800348680004586800023
:10395c00549f8800659f8800f813f800b810f90090
:10396c00ba30ef00e413f800c010f9000068ab00a7
:10397c00020032000068a9000021ef005614e2009a
:10398c00020032000a13e20001003a00de33ef00bd
:10399c00459e80008a8f52000400360000012000f2
:1039ac0030a288004b9e88004833ef0030a5800081
:1039bc000504070060a88000ea0f500003003e00d9
:1039cc0070a88000ea0f50000500360060a8800047
:1039dc000e15b4000000d100a0a88800020037002a
:1039ec00a0002000a0a888000810e200010032000e
:1039fc002ffe0700a0a88000010620000102b800dd
:103a0c00d20220001100090042aad800a0a688000a
:103a1c00f4fd070000958000e10f500007003a000c
:103a2c0030838000f30f500004003600ff000700c5
:103a3c00a232ef00a032ef006630ef00ddfd070090
:103a4c004502070050838000e10f500022003a002d
:103a5c00d0818000f2a68000c1818000000041006e
:103a6c0001005000d0818800d08180006102b80034
:103a7c00320020001100090042aad800c081880041
:103a8c009081800063208000518180000080410083
:103a9c000100500090818800908180006102b80084
:103aac001100090042aad800000178005281880058
:103abc003810e20007003200c28180005081800083
:103acc00813e20000182b8001100090042aad800f2
:103adc00408288006a30ef0011a580002103b000fd
:103aec0040062000808f50000900360010c0b30043
:103afc0048f5b700ae94a8009e14e20004003a000a
:103b0c0010002000f0a48800b000200030a2880033
:103b1c00401a20000c15e3000900360010c0b30059
:103b2c0048f5b700ae74a8009e14e20004003a00f9
:103b3c0010002000f0a48800c000200030a28800f3
:103b4c00401a20000e15e3000900360010c0b30027
:103b5c0048f5b700ae74a8009e14e20004003a00c9
:103b6c0010002000f0a48800d000200030a28800b3
:103b7c00003220001015e3000900360010c0b3001d
:103b8c0048f5b700ae74a8009e14e20004003a0099
:103b9c0010002000f0a48800e000200030a2880073
:103bac00700c20001015e30009003e0010c0b3009b
:103bbc0048f5b700ae74a8009e14e20004003a0069
:103bcc0010002000f0a48800f000200030a2880033
:103bdc0060a28000a014e30025003200b0a2800097
:103bec00e10f50001f003a0060a880000e15b400d1
:103bfc0040a2880040a280001015e300150036009a
:103c0c004a34ec0050a28000f30f5000160036002e
:103c1c001000200020a28800b09d880030a98000f0
:103c2c004200dd007810e3000f0036007810f80039
:103c3c004e14f90070a28000510520000182b800da
:103c4c00420620001100090042aad800c083880057
:103c5c00050037004a14e200030032004a34ed003c
:103c6c00010037004a34ef00a014f8004c14f9009e
:103c7c0000a580008614e3000d003200a014f800ab
:103c8c008614f900a09880008834b4008434ec00c9
:103c9c00000420008414e30005003a0040a48000d6
:103cac004600de00a0a288008434ef008834ef00c8
:103cbc005614e20002003200148ea800ebfd37000f
:103ccc00148ea900e9fd37000200fa000000eb0099
:103cdc00f0bf9f0000b022009000ba00c1a1880084
:103cec001080ba00f0bf9f00000000000000000030
:103cfc000080fa00000006007000200000708800b0
:103d0c0060e221008070880000002400b070880000
:103d1c0080012000307088000e2eef001e2eef0068
:103d2c000e0ea8000e2ea8001f2ea8001f4ea800d5
:103d3c001e4ea80000012800200888000014200056
:103d4c00100888000003280090088800a00f2000ad
:103d5c0070088800000028008008880011e1a90084
:103d6c001021a90010c1a900f0fc2f001021b600f1
:103d7c00f0c720006008880000e8a90020e8a8002f
:103d8c00e04280000040a0000050a1000060a000b4
:103d9c00e0428800204380000040a1000006b300f0
:103dac0020438800f0ff2c007608b60000e0a0004d
:103dbc00b04388004042800000c0a00000d0a000aa
:103dcc0000e0a000404288000042800000c0a1003a
:103ddc0000d0a00000e0a100004288002002a90051
:103dec00001180000010a1000020a000001188002c
:103dfc0020a2a9002062a8003000200040118800f9
:103e0c0023a2a90023e2a80010118000000cb3002b
:103e1c001011880021e2a8002342a8000168a90023
:103e2c002168a800118ea800000006002002a9003d
:103e3c00001180000010a1000020a00000118800db
:103e4c0020a2a9002062a80060aa8000e10f500007
:103e5c0003003a00300020004011880005003700b4
:103e6c0060aa8000e20f500002003a00100020000f
:103e7c004011880023a2a90023e2a80010118000a1
:103e8c00000cb3001011880021e2a8002342a80006
:103e9c000168a9002168a800118ea8000000060086
:103eac0001eca900022cef00102cef00802c230059
:103ebc002060880090608800016ca8000f6ca8003e
:103ecc00207a210030608800916080008100d10050
:103edc004006b00000804000a06088002728a800a1
:103eec002928a800202cef0000c0280010618800b1
:103efc00f53f2800206180008080620000c0230014
:103f0c000100700020618800250ca80074f02f00bf
:103f1c002161800001006200030720000080710015
:103f2c0020618800206180000000a0000010a1002a
:103f3c002061880000402800d061880072002f00aa
:103f4c00e1618000010061008107200000807000a9
:103f5c00e0618800322cef00362cef00282cef00ab
:103f6c00302cef002a2cef00262cef002c2cef002d
:103f7c002e2cef00402cef0000c0240010628800b3
:103f8c00206280008082620005e0a000256288002b
:103f9c00450ca800206280000002620004827100bf
:103fac0024628800206280000000a0000010a100a4
:103fbc002062880000582200d0628800e0628000f5
:103fcc000001610002817000e2628800462cef0063
:103fdc00040cd500406288004a2cef00007d2000c4
:103fec0090628800803e2000b06288004e2cef006a
:103ffc00040cd50080628800602cef00622cef006e
:10400c0001eca80000000600f2fb2f00103a800023
:10401c000001610060042000710520002374200061
:10402c00804978008149780082497800ba66ef00af
:10403c0002fc2f00b3338000030161006200b30067
:10404c00b2338800f20f2c00b533800005026100fa
:10405c000350200084817100b3338800b3c2b300d5
:10406c00846c2000034a7800e5c15100834278003b
:10407c00946c2000054a7800e33380000301610052
:10408c000280a000e2338800c5c2b300446c20005b
:10409c00054a7800123a80000260a00023742000c8
:1040ac008049780081497800824978000000060038
:1040bc0010002800202a8800002a880011082800f7
:1040cc00412a8800602a880000fa2000102a880003
:1040dc004a25ef004e25ef0000000600f0022000fc
:1040ec00403a880075004000303a8800f0f32f0009
:1040fc004427b60000fe2f004427b600103a80007b
:10410c000080a0000090a10000a0a100103a88003f
:10411c00f08f2f004427b60010002000a2092000c9
:10412c00810720003374200081497800824978008f
:10413c00804978007205200061042000237420005f
:10414c008149780082497800804978000200270074
:10415c0001002100133a800003006100810f500020
:10416c00fcff3a0001022000123a8000028060003d
:10417c00fdff320050c7a80050e7a90051a7a800c6
:10418c00803a80000030b30000a0a000803a880084
:10419c0051e7a800000006000023ef005018800033
:1041ac0000e0a00000f0a10050188800f00f2c00d7
:1041bc000a03b6000080a0005018880000f82f00f9
:1041cc00b21e8000820060003100b300b11e880076
:1041dc00d31e8000830060003100b300d11e880024
:1041ec000403b6003000b30020188800b01e800015
:1041fc000030b300b01e8800d01e80000030b30029
:10420c00d01e8800101880000006b300101888001b
:10421c0002e3a9000d03a9000d23a90010208000c2
:10422c000030b30000a0a00000b0a0001020880057
:10423c0001e3a800100020000afc07000004a800fd
:10424c00011020000220800002806000fdff32007f
:10425c000a03a8000024a8000120200003208000ed
:10426c0003806000fdff32000a23a80000e4a800d0
:10427c00010028000220800002806000fdff320057
:10428c000ae3a8000424a8000444a9000404a8001c
:10429c00010820002320800003806000fdff320015
:1042ac000424a9000524a8000544a9000504a800bd
:1042bc00010028002220800002806000fdff3200f7
:1042cc000524a9000b24a8000b44a9000b04a8008a
:1042dc00010028005320800003806000fdff3200a5
:1042ec000b24a90001fe2f00021c8000028060003c
:1042fc006000b300001c8800f00f2e00021c800030
:10430c00820160000260200003017100021c880021
:10431c0023382000938960008223b600231c800080
:10432c00038160000220a000221c8800221c800057
:10433c00820160000240200083017100231c880070
:10434c0063382000938960008603b600000071007a
:10435c00301c880000000600b02080006102b8000c
:10436c00b20020001100090042aad800f098880081
:10437c00f0062000009988006b005000d09a88004d
:10438c001a04f800c613f90040a5800054a580005b
:10439c0003a6800012a6800021a680000000420027
:1043ac000300400002004000010040006102b9001f
:1043bc005200200011000900422ad80010a58800e4
:1043cc00c214f800c414f900c014f800c214f900a7
:1043dc00aa14f800c014f900a814f800aa14f900e3
:1043ec0020032000a214e3000100340010a5880073
:1043fc00e0fc2f00a214e30001003d0010a5880092
:10440c00a214f8009a13f900000006004083200063
:10441c00a014e300060036008c14e20004003a00fd
:10442c004875ef0010002000409a880060a48800b6
:10443c00af14ab000300320010c0b30048f5b70056
:10444c00030037008c14e200010032004875ef00c5
:10445c00000006000400fa0000b022000100200059
:10446c00e0bf9f00f1bf9f002008f8008e14f900f8
:10447c002208f8009014f9002608f8009214f900ac
:10448c002808f8009414f9002a08f8009614f9008a
:10449c002028ef002228ef002628ef002828ef0024
:1044ac002a28ef0030002400403988006fb89700ac
:1044bc00ffb89700613988006fb89700ffb8970074
:1044cc00503988000500fc00500520007039880028
:1044dc00a00a20007039880029e7a800000000001d
:1044ec0000000000100020005efb0700a00f200061
:1044fc00a002880010002400403988006fb8970093
:10450c00ffb89700613988006fb89700ffb8970023
:10451c005039880071a580000000eb000108bb0039
:10452c008000eb000188bb000500fc00500520005a
:10453c0070398800a00a20007039880029e7a8008b
:10454c0000000000000000008e14f8002008f900a4
:10455c009014f8002208f9009214f8002608f900cb
:10456c009414f8002808f9009614f8002a08f900a9
:10457c000080fa00000006000018a30003003200bf
:10458c0060092000c0a48800180037000028a30090
:10459c0003003200c0122000c0a4880013003700b2
:1045ac000038a30003003200201c2000c0a48800a7
:1045bc000e0037000048a3000300320080252000c5
:1045cc00c0a48800090037000058a3000300320083
:1045dc00e02e2000c0a48800040037000000e0009a
:1045ec0002003a00f03f2000c0a488000000060042
:1045fc00c614e20003003a009c34ef0011002000c6
:10460c0031a6880051a68000808f50000e0031002a
:10461c00301f20009c14e30003003e00100020001b
:10462c0040a6880013003700c834ef00803e2000fd
:10463c009c14e3000f0036009c34ef008100e8006e
:10464c0051a688000b003700017d2000e2a48000f9
:10465c00810f510002003600ca34ef009c34ef0089
:10466c000000e00003003a00c834ef00ca34ef0049
:10467c009c34ef0040a68000000006006013ed00a3
:10468c00e30f400004003600ae14a8001000200018
:10469c0030a2880001003700ae14a900d0a580001c
:1046ac00a014e30085003200a014f800ba14f9003d
:1046bc00f03d20001e13e30005003e00002a200000
:1046cc001e13e30002003600af14a90003003700ec
:1046dc00af14a8002000200030a28800107c2f000e
:1046ec001404b40061342000810f500002003e001d
:1046fc00af14a90003003700af14a800300020004d
:10470c0030a28800700220002413e300060036005b
:10471c00e03f20002413e30003003e00700820005b
:10472c002413e30004003e00aed4a8004000200097
:10473c0030a2880008003700e00b20002413e300af
:10474c0005003600aed4a90030a28000e40f500062
:10475c0001003a004634ef00700220002213e300ff
:10476c0006003600e03f20002213e30003003e0069
:10477c00700820002213e30004003e00aef4a800f1
:10478c005000200030a2880008003700e00b200009
:10479c002213e30005003600aef4a90030a280001d
:1047ac00e50f500001003a004634ef0081a880006c
:1047bc00910cb10060252000808f50001e003e003f
:1047cc00301a20000c15e3001b003e000e15e30010
:1047dc0019003e00c0332000b614e300130036006d
:1047ec008c14e20011003a00b634ef0080a880006f
:1047fc0065005000b414e30007003600a198800057
:10480c0080a8800000805000e90f500002003c009e
:10481c00ae34a90003003700ae34a80060002000bd
:10482c0030a288001015f800b414f900b634ec006e
:10483c00ae74a9000b003700700c20001015e300bb
:10484c0003003e00ae74a8007000200030a2880067
:10485c00b434ef00b634ef00ae34a8008000200072
:10486c0030a2880011a580002103b0004006200072
:10487c00808f500004003600ae94a80090002000f9
:10488c0030a2880001003700ae94a900ae54a900f4
:10489c009e13e20004003200aeb4a800a000200079
:1048ac0030a2880001003700aeb4a9001415f8003e
:1048bc001c13f9001015f8001a13f90070a58000ec
:1048cc000000e0000d003a00815421009140780076
:1048dc00e1cf500009003a008c14e2001a003200bb
:1048ec004875ef00146ea900b634ef00b434ef0035
:1048fc0010002000c0a2880010003700e00fb200aa
:10490c000e0032004614ed00ef0f50000a003e007e
:10491c0030a2800036ff0700610060004300dd001c
:10492c0071ff2f00a27080008280600081007000f7
:10493c00a170880001003700146ea800e00320006d
:10494c00ae14b60009003a001253ab0007003a004f
:10495c00401f2000ac14e3001000360010002000b3
:10496c0060a48800d0a488000c0037008c34ef00c1
:10497c00ac34ef0010c0b30048f5b700d0a48000f1
:10498c00e10f500005003a00262cef004e2cef00f2
:10499c004a25ef004e25ef009a34ef00e01f20006f
:1049ac00ae14b6000200320010c0b30048f5b700d8
:1049bc000000060050432000101288000000280060
:1049cc00001288000000060051a98000f98f5000e9
:1049dc00040036002a35ef002e35ef004802f800af
:1049ec003615f90051a98000ea8f5000730036008b
:1049fc0071a98000e18f50000f00320005003900d2
:104a0c00e28f500015003200e38f50006b003a002b
:104a1c001a00370061a48000c808dd0001c0a000a6
:104a2c000100700080aa880040128800100020004d
:104a3c0070a98800610037004002ab005f003200b3
:104a4c004802f8003615f9002000200070a98800f3
:104a5c002a15f8003015f900580037003015ec0015
:104a6c002a15e300550036003000200070a988009c
:104a7c005015f8004802f900500037004002ab0016
:104a8c004e00320040128000c0a988003615e300a9
:104a9c004a003a000000e000480032002a35ef00de
:104aac00cc00de00c1a98800f2ff200002006000eb
:104abc00b0a988006109b800e90f5100e08f5900d6
:104acc003c003e0002060100090037001c003700c4
:104adc001d00370022003700230037002500370067
:104aec002600370027003700280037002f0037003a
:104afc003a15e3000400320041002000f1948800d4
:104b0c0090988800d0a98800800078000128b20015
:104b1c000300320011002000019b880001003700c7
:104b2c006033ef0000b8a300030032001000200037
:104b3c00a0a188001f0037003434ef001d0037009f
:104b4c00109988001b00370080007800f103b20038
:104b5c00b19888004800de00c09a88001500370024
:104b6c00a098880013003700909a8800b0958800b0
:104b7c0010003700209988000e00370080a88800ac
:104b8c000c003700e0a988000a00370070a88800e4
:104b9c003c15f8000c15f90061a8800070a8800085
:104bac000080500040a5880002003700a09a8800c1
:104bbc00c09588002a35ef002e35ef000000060066
:020000040000fa
:104bcc004a1500000400000082000000b80b010030
:104bdc00000000009212000008010000800000009c
:104bec004e150000040000008200000001000000cf
:104bfc00100000002a1500001400000080000000c6
:104c0c00521500000200000082000000ffff0000af
:104c1c008c14000040000000800000000c15000007
:104c2c001e000000820000000a000a00000a0000ba
:104c3c000a000a00000100000a0001000008000040
:104c4c000100040007180600f401860001c10100f0
:104c5c009a13000098000000800000000010000073
:104c6c009202000080000000cc1400004000000004
:104c7c0082000000d00701000032000064000a002e
:104c8c000070170022004600002c01000500960061
:104c9c0000400000c8002000034100001a00020080
:104cac000001000028001400001b0000020032006c
:104cbc00001900008c00010000f0000000e1f5007c
:104ccc000500e100f5057c001500000054150000fe
:104cdc000200000080000000321400005a000000a6
:104cec00800000003e1500000c0000008200000057
:104cfc008813200000320000e600140000010000c0
:044d0c0000000000a3
:020000040000fa
:104d1000881f78000004eb00a0aa800054f9070067
:104d200068a48800fcff3700801f7800c028a90015
:104d3000262cef004e2cef0010002000a0aa8800c7
:104d40004f00780000400600801f7800c068a9006e
:104d5000262cef004e2cef0040002000a0aa880077
:104d60004f00780000400600801f7800c048a9006e
:104d7000262cef004e2cef0080002000a0aa880017
:104d80004f00780000400600801f7800c088a9000e
:104d9000262cef004e2cef0000012000a0aa880076
:104da0004f00780000400600801f7800c028a9004e
:104db000262cef004e2cef0000022000a0aa880055
:104dc0004f00780000400600801f7800c068a900ee
:104dd000262cef004e2cef0000042000a0aa880033
:104de0004f00780000400600801f7800c048a900ee
:104df000262cef004e2cef0070002000a0aa8800a7
:104e00004f00780000400600801f7800c088a9008d
:104e1000262cef004e2cef0080002000a0aa880076
:084e20004f007800004006007d
:020000040000fa
:0456000000000000a6
:020000040000fa
:04560400711b000016
:020000040000fa
:045620000000000086
:020000040000fa
:04af300079ff0000a5
:020000040000fa
:04af38007bff00009b
:020000040000fa
:04af40009fff00006f
:020000040000fa
:04af5000deff000020
:020000040000fa
:04af5800feff0000f8
:00000001FF
